:0E00000098C0FECFFDCFFCCF6DC4FACFF9CF74
:10000E00F8CFF7CF3CC4F5CFBDC3F3CFF2CFF1CFCE
:10001E00F0CFEFCFEECFEDCF1027E80364000A004C
:10002E00010000100001100001000000000000009F
:10003E00010000000000000A1E19324B324B640012
:10004E00000000000000000000000000543D2025CC
:10005E0032646F43202020483D2025326425250040
:10006E00546F6320646F203A202533640025326478
:10007E003B2532643B2532643B00444F20414E20E9
:10008E00544F54204E4748494550004368652064FC
:10009E006F2074687520636F6E672000546F632045
:1000AE00646F203A2025336425252020202000204F
:1000BE002020202053746F7020202020202020002C
:1000CE002020202020202020202020202020202022
:1000DE00000080C001002D4E414E00494E460000EA
:1000EE000100020038000A0004003A000900DD0198
:1000FE004400020060016C001100620188001100D2
:10010E0073019900020084016C0011008601BD008C
:10011E0011009701CE000200FC01E0000100020276
:10012E00E2000000F894EE27ECBBF1E0FBBFEBBF62
:10013E00E5BF8DE0A2E0BB27ED938A95E9F780E05D
:10014E0094E0A0E6ED930197E9F7EEEEF0E08591ED
:10015E009591009761F0A591B59105901590BF010D
:10016E00F00105900D920197E1F7FB01F0CFEFE55D
:10017E00EDBFE4E0EEBFC0E6D1E0B2C3849902C0A9
:10018E0022FE01C003C0689422F8E7D6849B02C009
:10019E0022FC01C01FC0E89422F8689425F825FEC1
:1001AE0003C0E1E0E81509F003C04BD4E2E0D8D675
:1001BE0025FE03C0E2E0E81509F003C042D4E3E0F7
:1001CE00CFD625FE03C0E3E0E81509F003C039D40D
:1001DE00E1E0C6D60895839902C020FE01C003C097
:1001EE00689420F8BAD6839B02C020FC01C015C0CB
:1001FE00E89420F8689423F823FE03C0E1E0E815A4
:10020E0009F00BC0F2013A962F01E4E6F0E0E41596
:10021E00F5050CF42F01E89423F80895829902C095
:10022E0021FE01C003C0689421F897D6829B02C0BC
:10023E0021FC01C015C0E89421F8689424F824FE2E
:10024E0003C0E1E0E81509F00BC0F2013A972F0167
:10025E0000244014500414F444245524E89424F843
:10026E00089582D618F483D687D61AC07DD618F094
:10027E00E4E1E61508F408C088D6A0E0B0E080EA14
:10028E0091E489D679D60CC0E4E1E61548F4E0E0B5
:10029E00E093BC01E093BD01E093BE01E093BF018A
:1002AE00089562D6E8F060D610F07FD608F009C047
:1002BE006CD67ED6E0E0F0E060E771E46CD67BD6DB
:1002CE0018C073D610F080D608F408C05ED6A0E031
:1002DE00B0E088EC91E45FD66ED60BC075D648F4CC
:1002EE00E0E0E093C001E093C101E093C201E0932E
:1002FE00C301089569D618F43AD669D619C055D6F1
:10030E0010F062D608F409C040D652D6E0E0F0E014
:10031E0068EC71E440D65BD60BC047D648F4E0E0FB
:10032E00E093C401E093C501E093C601E093C701D9
:10033E00089556D618F41BD656D61AC051D618F0B4
:10034E00E6E4E71508F408C057D6A0E0B0E08CE864
:10035E0092E458D648D60CC0E6E4E71548F4E0E03F
:10036E00E093D001E093D101E093D201E093D30169
:10037E00089536D6E8F034D610F04DD608F009C000
:10038E003BD616D6E0E0F0E060E772E43BD646D608
:10039E0018C041D610F04BD608F408C02DD6A0E0F8
:1003AE00B0E080EA92E42ED639D60BC040D648F49F
:1003BE00E0E0E093CC01E093CD01E093CE01E09339
:1003CE00CF01089534D618F4D2D534D619C023D619
:1003DE0010F02DD608F409C00FD6EAD5E0E0F0E013
:1003EE006CE872E40FD626D60BC015D648F4E0E0C2
:1003FE00E093C801E093C901E093CA01E093CB01F9
:10040E00089521D619F4E0E0E093E9011CD619F025
:10041E00E1E0E093E90121D619F4E0E0E093EA018E
:10042E001CD619F0E1E0E093EA0121D619F4E0E0E0
:10043E00E093EB011CD619F0E1E0E093EB0121D63D
:10044E0019F4E0E0E093E6011CD619F0E1E0E09348
:10045E00E60121D619F4E0E0E093E7011CD619F08D
:10046E00E1E0E093E70121D619F4E0E0E093E80142
:10047E001CD619F0E1E0E093E801089528D910E0C8
:10048E001330F0F400E00330C8F4A3E01A9FF0013B
:10049E00EC52FE4FDF01E02FF0E0EA0FFB1F0F01E1
:1004AE000ED6EA51FE4FA081E02FF0E0E751FE4F4D
:1004BE00E081EA0FD001EC930F5FE5CF1F5FE0CF35
:1004CE00099119910895E3D8FDD551D5A1D80E2ED5
:1004DE00FED5FFD59DD8E02111F0FBD52EC0F7D566
:1004EE0046D596D80E2EEED5F4D592D8E02111F041
:1004FE00F0D523C0F3D514F4F4D50CF00AC0F4D51E
:10050E00E1D543D811F008F002C0F0D516C0ECD5F5
:10051E0014C0E4D514F4E5D509F002C0E7D50DC03A
:10052E00E0D514F4DBD509F002C0DED506C0D9D56E
:10053E0011F4D4D509F001C0CCD52896089563974F
:10054E008CE0A7E0B0E0EEE4F0E0CBD8BED8E091CE
:10055E00BC01F091BD016091BE017091BF0192D8B6
:10056E00A091C801B091C9018091CA019091CB01AF
:10057E00AADFEB8BFC8B6D8B7E8BE091C001F09133
:10058E00C1016091C2017091C3017CD8A091CC01D0
:10059E00B091CD018091CE019091CF0194DFEF8784
:1005AE00F88B698B7A8BE091C401F091C501609153
:1005BE00C6017091C70166D8A091D001B091D1014A
:1005CE008091D2019091D3017EDFEB87FC876D87FE
:1005DE007E8710E000E0033000F530E03330D8F4D1
:1005EE00A3E00A9FF001EC52FE4F85D5AC91A230EC
:1005FE0081F465D5DE011896EA0FFB1FBF01A3E05B
:10060E000A9FF001E352FE4F76D5EC91DB01EC939D
:10061E001F5F3F5FE3CF0F5FDECF113011F470D558
:10062E009CC0123009F065C071D531F475D545D82E
:10063E0019F077D542D809F419C062D56DD512D705
:10064E007F936F93FF93EF9371D5AF91BF918F917E
:10065E009F91B8D67F936F93FF93EF936FD55CD531
:10066E00B1D6AF91BF918F919F916DD555D525D8AC
:10067E0029F44CD519F055D520D809F419C040D518
:10068E0068D5F0D67F936F93FF93EF934FD5AF91CD
:10069E00BF918F919F9196D67F936F93FF93EF9318
:1006AE004DD557D58FD6AF91BF918F919F914BD589
:1006BE0038D503D829F42AD519F02ED5FED709F44A
:1006CE0017C01ED546D5CED67F936F93FF93EF936B
:1006DE0045D5AF91BF918F919F9174D67F936F93B4
:1006EE00FF93EF9343D5AF91BF918F919F912BD5F0
:1006FE0038C01330B1F515D5E0D729F007D519F06C
:10070E000BD5DBD709F42DC0FBD423D5ABD67F9305
:10071E006F93FF93EF9322D5AF91BF918F919F91DE
:10072E0051D67F936F93FF93EF93EA85FF2766274A
:10073E0077270ED6F6D496D6AF91BF918F919F9113
:10074E0041D67F936F93FF93EF9310D5EAD43AD6A9
:10075E00AF91BF918F919F91D3D6EC83FD836E8322
:10076E007F83B0D4F5D1BDD52F01B6D76796089546
:10077E0078DDC0DD96DD26DEFCDDDBDD42DE7EDEF5
:10078E00DEDE0895EA93FA93EFB7EA93BCB0EEE299
:10079E00EB1551F0EA2DF0E0F0D4B082A394E0E135
:1007AE00AE1608F0AA2402C0E1E0DE2EE991EFBFFA
:1007BE00F991E99118951A9310E0E1E0ED1581F5A4
:1007CE0010E0103110F57BD4DBD4A13319F468940A
:1007DE0020F819C074D4D4D4A23319F4689421F833
:1007EE0012C06DD4CDD4A43311F4E1E00BC067D4A4
:1007FE00C7D4A53311F4E2E005C061D4C1D4A93346
:10080E0011F4E3E08E2E1F5FDCCF10E0103130F4D8
:10081E0056D4B3D4A0E0A0831F5FF8CFAA24DD2462
:10082E0019910895E2E0E815D9F4ADD4EAE5F0E0C7
:10083E00AFD4B1D488E050D32C96B8D4A0E0B9D4BC
:10084E0097DF00244014500414F4442455249BD400
:10085E00EEE6F0E0B2D4A1E0ACD4A0E6B1E015D162
:10086E0092D4EBE7F0E094D496D4F201CCD60AD72A
:10087E008CE032D36096A8EAB1E0DCD108950A92FA
:10088E001A92FA926A937A938A939A93AA93BA9344
:10089E00EA93FA93EFB7EA93E2EBE2BF9CDCBEDC9D
:1008AE006DDC9394E1E3E91540F4E6E0F0E070D4FA
:1008BE00A7E0B0E05DD1B6DF9924E991EFBFF991E1
:1008CE00E991B991A9919991899179916991F9904B
:1008DE00199009901895EA93E2EBE4BDE991189509
:1008EE00E6E0E7BBE0E0E8BBE4BBE5BBE1BBE2BBB7
:1008FE00E5E0E3BFE2EBE2BFE2EFEFBDEBE1EEBD21
:10090E00E0E0EDBDECBDE0E3E7BDE3EDE6BDE0E02C
:10091E00EBBDEABDE9BDE8BDE2BDE7E0E5BDE2EB5A
:10092E00E4BDE0E0E3BDE1E4E9BFE0E0E5BFEBB943
:10093E00E8E9EAB9E6E8E0BDE0E0E0BDE3E3E9B905
:10094E00E0E8E8B9E0E0E0BFE6B9EDB9E6BFA0E166
:10095E00A4D0A2E6B1E099D0A8EEB3E089D4789401
:10096E00F201ADE7B0E064D6F9BDE8BDFBBDEABD6E
:10097E00E82DF0E0E130A0E0FA0781F417D4A0E012
:10098E0051D0A3E7B1E081D0FED3EAEAF0E015D46E
:10099E00A1E00FD4A4E8B1E078D016C0E230A0E018
:1009AE00FA0791F0E330A0E0FA0771F4FFD3A0E06C
:1009BE0039D0A6E8B1E069D0F9D3A1E033D0A7E9E8
:1009CE00B1E063D044245524F6DECACFFFCFAA93FC
:1009DE00E881E07111F0AB9A01C0AB98E881E0724A
:1009EE0011F0AA9A01C0AA98E881E07411F0A99AB0
:1009FE0001C0A998E881E07811F0A89A01C0A898E2
:100A0E00E4D3AC9AE2D3AC98E0D312C1AA93A881F6
:100A1E00DEDFE881E295E883A881D9DF85E88A9553
:100A2E00F1F706C1AA93E881F0E0E450FE4FE081B1
:100A3E00A981AE0FEBDFC980E881E0930002229618
:100A4E000895A2E0C6D3ACE0E1DFA1E0C2D3E0E0BE
:100A5E00E0930002CE2E0895AA93A881AA3021F029
:100A6E00E0910102CE1658F0A1D3A0910002AF5F23
:100A7E00A0930002D7DFA881AA3009F4D9C0C3948D
:100A8E00AD9AA881C3DFAD98D3C0A7D31A93A8D3CC
:100A9E0019F0A12FE1DFFBCFD6C0AA93A39AA29A99
:100AAE00A19AA09AA49AA59A8F9AAC98AD98979865
:100ABE00E881E0930102E058E093FE01E881E05402
:100ACE00E093FF01A4E1B0E0D3D392D391D390D3BE
:100ADE00A0E27DDF88EC90E00197F1F7A8E296DFC7
:100AEE00A4E094DFA5E892DFA6E090DFAADFA0C025
:100AFE00CED57B816A81F981E88177FB770F67FD1F
:100B0E007160972F9E5781F078F0983190F4AA2754
:100B1E00BB27882708948795B795A7959A95D1F7FF
:100B2E00EA23FB23682305C0E8947727EE27FF27E7
:100B3E0066276F77769508F4606877F9A991B99171
:100B4E0089919991EA17FB076807790797FB089532
:100B5E009ED5BDD2CDDF91D511F4C6D207C0EEF72A
:100B6E00C3D2A0E0B0E080E89FE325D42496089598
:100B7E0034D32597E0E0E883E983EA83EB83EC83C3
:100B8E00A4D5B89AC09A3BD3C098A9E1B0E070D36F
:100B9E00C09AB89834D3B09B02C0E0E041C0B09B7D
:100BAE00FECF2DD3B09902C0E0E03AC0B099FECF8F
:100BBE0000E00530F8F410E01830D0F4B09BFECF12
:100BCE0085E88A95F1F7B09B11C0E02FF0E0DE01C9
:100BDE001496EA0FFB1FBF011080E7E0E11BA1E0B6
:100BEE0004D5E129DB01EC93B099FECF1F5FE4CF72
:100BFE000F5FDFCFED81AC81EA0FAE81EA0FAF81DF
:100C0E00EA0F3E2FE885E31711F0E0E009C0EE8110
:100C1E00AB85BC85EC93EC81A985BA85EC93E1E0BC
:100C2E005BD52D960895AA935D9BFECFE881ECB916
:100C3E0021960895D2D21A93D3D219F0A12FF3DFB1
:100C4E00FBCFAAE0F0DF188123960895C6D23FD5D8
:100C5E00DAD2129600D53097F1F0D5D2D7D28F01D5
:100C6E00309761F00230E0E01E0770F0F801319726
:100C7E008F01AA81BB811496ED93FC93C4D2129678
:100C8E00C8D23197AC81A083BED2E5D4FF2312F037
:100C9E00BAD2BFD205C0B7D2EFEFFFEFED93FC9300
:100CAE001DD52596089599D226970DD510E0AC85C1
:100CBE00BD85E0E0F0E0ED93FC93EA89FB89319687
:100CCE00EA8BFB8B3197E4912E2FE03009F4FEC0B6
:100CDE00E12FE03031F4253211F411E001C09FD242
:100CEE00F4C0E130A1F4253211F499D2EDC012E036
:100CFE0040E000E02D3211F401E0E7C02B3211F498
:100D0E004BE2E3C0203211F440E2DFC002C0E23019
:100D1E0039F450E013E0203311F40068D6C003C05C
:100D2E00E33009F0D2C0203310F02A3308F007C0A8
:100D3E00AAE05A9F502DE22FE0535E0FC6C0E22F5D
:100D4E00E33639F473D275D271D2A481AA9375D2D7
:100D5E00BBC0E33731F477D278D27AD2E7D01E2FE8
:100D6E0008C0E03751F46FD270D272D2EAD01E2F83
:100D7E00086002600F7730E02EC0E43611F0E936DD
:100D8E0011F4046002C0E53729F4E6E2F0E065D222
:100D9E0015E00BC0E83511F4086003C0E83709F020
:100DAE0093C0E0E3F0E059D214E002FF11C04BD241
:100DBE004CD256D2AB85AA232AF4EA85FB8509D4F8
:100DCE004FD24DE2403011F01F5F01C00B7F03C0C8
:100DDE003AD23BD245D200FD10C0151770F407FF72
:100DEE0008C002FF04C00B7F242F115001C020E366
:100DFE0001C020E214D25150F0CF312F01FF15C0A7
:100E0E00303091F003FF05C0EE81FF81259125D290
:100E1E0005C0AE81BF812D91AE83BF8300D250300D
:100E2E0009F051503150ECCF46C020E3EE81FF81E6
:100E3E0016D4E887F987EE81FF8132960ED2E885C7
:100E4E00F985AA85BB85AE17BF0748F02F5FA88529
:100E5E00B985EA85FB85EA1BFB0B02D2F0CF2A335C
:100E6E0028F003FF02C0295F01C0295D04FD19C0EF
:100E7E00213320F4A885B985119709F409C05317B9
:100E8E0010F000FF01C011C020E207FF0AC020E3EE
:100E9E00006102FF06C00B7F4A93CFD1503009F09C
:100EAE005150BDD1503009F051503150A885B985FF
:100EBE00129708F0BACF00FF07C0503029F05150FA
:100ECE00E0E2EA93BAD1F9CF10E0F7CEAC85BD855A
:100EDE00C2D300D464960895FF92F82E2697F5D3C8
:100EEE00C2D1309719F4EFEFFFEF1CC0DE0116965A
:100EFE006CD38D01B8D1B1D1E0E0E887E987DE018E
:100F0E001A9663D3A8D344D11A930A93EDE2F6E06E
:100F1E003FD1DE011A96C7DE9F01AE81BF81E0E0B0
:100F2E00EC93F901D9D32A96FF90089556D1A99141
:100F3E00B991EE27FF276D91662311F03196FBCF05
:100F4E0008954BD1AA27BB27E991F991059000206E
:100F5E0011F01196FBCFFD010895AAE0B0E088C113
:100F6E008E2EE89425F80895EFE06E160895E0E0D1
:100F7E00F0E060E87FE30895E093BC01F093BD01DB
:100F8E006093BE017093BF010895E62DFF2766277B
:100F9E007727DED1089580D30ED2DF01CB01E0E0BA
:100FAE00F0E060EA70E4ACD20895E4E16E160895C4
:100FBE00DF01CB010895E093C001F093C10160936E
:100FCE00C2017093C3010895E9E1E6150895E09317
:100FDE00C401F093C5016093C6017093C7010895D3
:100FEE00ECE37E160895E093D001F093D101609367
:100FFE00D2017093D3010895E72DFF276627772737
:10100E00A7D1089549D3D7D1D3DFE0E0F0E060E275
:10101E0071E476D20895E6E47E160895E093CC014D
:10102E00F093CD016093CE017093CF010895E0E56A
:10103E00E7150895E093C801F093C9016093CA01C2
:10104E007093CB010895E091BC01F091BD016091C8
:10105E00BE017091BF012DD30895E091C001F091B2
:10106E00C1016091C2017091C30123D30895E09133
:10107E00C401F091C5016091C6017091C70119D3E9
:10108E000895E091C801F091C9016091CA01709173
:10109E00CB010FD30895E091CC01F091CD01609179
:1010AE00CE017091CF0105D30895E091D001F0915A
:1010BE00D1016091D2017091D301FBD20895E12F3D
:1010CE00F0E00895AC81BD818E819F810895D0D2CC
:1010DE000895E0E0F0E060E070E00895F3DFEDD217
:1010EE000895F5DFEAD20895BED20895EC81FD8110
:1010FE006E817F810895DF01EE27A30FBE1F089535
:10110E00E885FF276627772723D10895AB89BC8909
:10111E008D899E89D2D20895AF85B88989899A8999
:10112E000895AB85BC858D859E850895E985FF273D
:10113E00662777270DD1F5DF95D10895EB85FC85D0
:10114E006D857E850895DCD1EC83FD836E837F8370
:10115E000895AB89BC898D899E890895E985FF27FD
:10116E0066277727F5D0D8DF7DD10895EF85F889EA
:10117E0069897A89EEDF26D10895E451FE4F0895EC
:10118E00FCDFA0810895E8EAF1E0FA93EA9308956E
:10119E00FA93EA930895E62DFF276627772772D2F2
:1011AE00E72DFF27662777276DD20895E0E0EA93B3
:1011BE00089538DCA8EAB1E068CCEADFF20123D268
:1011CE0061D284E089DE2896F1CF8DE08A95F1F721
:1011DE0008951CDCA3E0B0E04BC0BA93AA93089527
:1011EE00A981BA81ED91A983BA831E2FE0300895AB
:1011FE00A0E3EDDB88EC90E00197F1F7089580EA2B
:10120E008A95F1F70895AA81BB810895149623D289
:10121E000895ED91FD913196FE93EE9308952A93E4
:10122E00AD85BE85EF85F88909950895E889F98918
:10123E0008953497E88BF98B0895AD85BE85EF85BB
:10124E00F88909950895F2DFF4CFA889B989DECF20
:10125E00EE83FF83AE81BF810895EE83FF830895F1
:10126E00EA87FB870895DE011C96AFD1F4D108956D
:10127E00109639F080ED97E00197F1F7A895119748
:10128E00C9F70895552342F4503811F4E0FF04C015
:10129E003196691F791F6BF050E8572711F45F9351
:1012AE00CFC05F3F31F0660F000C57956795752FD5
:1012BE0008955F9300200AF0CFC0C8C050E8192EE1
:1012CE001522880F991F9527550F879550E8072EE1
:1012DE000522660F771F7527550F67950895689439
:1012EE0001C0E8945F93F2DF703818F07F3F08F486
:1012FE00A7C056E1571BAAF4519558300EF4593039
:10130E0030F0EFEFFFEF6FEF7FE777F91AC0772737
:10131E005523B9F0EE0FFF1F661F771F5A95D1F7B1
:10132E0010C07727583028F0EF2FF62F672F585020
:10133E00F9CF552331F076956795F795E7955A9540
:10134E00D1F700200AF449D15F910895689401C045
:10135E00E894309760407040B1F0002426F0772377
:10136E0012F400943AD1172E7EE1112032F07A95C4
:10137E00EE0FFF1F661F111CF9CFEF2FF62F612DF9
:10138E005F938ADF5F9108954F93AF01FD01DA01FC
:10139E00AB01BC01CA01402D012C142E4F910895B2
:1013AE00EA0FFB1F681F0895E095F0956095EF5FBB
:1013BE00FF4F6F4F08955F9381DF903871F150E8C2
:1013CE00152604C05F937ADF903839F1703821F119
:1013DE00572F591B2BF112F4D7DFFACF583118F0D3
:1013EE00AA27BB278827583028F0AB2FB82F88277D
:1013FE005850F9CF552329F08695B795A7955A954C
:10140E00D9F7502D512572F0CBDF38F46795F7954B
:10141E00E795739513F420C0B7DF3EDF5F91089513
:10142E00D8F7FBCFEA1BFB0B680B51F010F40094BE
:10143E00BBDF662392F3EE0FFF1F661F7A95CBF785
:10144E00EE27FF27662777275F910895EFEFFFEFCF
:10145E006FE77FEF5F910895EFEFFFEF6FE77FE7A5
:10146E005F9108955F932ADF703851F3903841F3FE
:10147E0001240894791F23F41CF300203AF3ECCFD7
:10148E000F921F932F933F934F9311272227992744
:10149E00689FA0018F9F302D410D591F6B9F300DFE
:1014AE00411D591F8E9F27D0BF9F25D06A9F23D0E5
:1014BE00BE9F1DD0AF9F1BD0AE9F110D291F391F90
:1014CE00491F591FE32FF42F652F522F4F913F9134
:1014DE002F911F910F9066232AF0550FEE1FFF1FBD
:1014EE00661F02C073954BF2CDDE5F910895100D0D
:1014FE00211D391F02C0200D311D491F591F08958E
:10150E005F93DCDE703821F411200AF49FCFA4CF54
:10151E00903809F495CF01240894970B1BF4D4F35B
:10152E000020F3CF792F1F932F933F934F931124C6
:10153E001127222733274427552790E2AE17BF07DE
:10154E008607410730F0AE1BBF0B860B410B08948C
:10155E0001C08894551F221F331F111CAA1FBB1FC9
:10156E00881F441F9A9551F7F901612D4F913F91B4
:10157E002F911F91662332F0550FEE1FFF1F661F2E
:10158E007A9543F27FDE5F91089599239AF077233F
:10159E0042F0971748F029F4AE17BF07860720F0E0
:1015AE0031F0989488940895989408940895189416
:1015BE00889408957723C2F7971798F3A9F7EA1737
:1015CE00FB07680788F399F3ECCF0024AF0DB01D2D
:1015DE000895F195E195F0400895F0956095709518
:1015EE00E195FF4F6F4F7F4F0895EE230E2EEA2F9A
:1015FE0019F0EE0F0A94E9F70895FE2FFF0FFF0B77
:10160E006F2F7F2F08956F2F660F660B762F08951D
:10161E00EA17FB0768077907E1E009F0EE2708955E
:10162E00FA9FF02DEB9FF00DEA9FE02DF10D08953E
:10163E0004D0F6DF0EF4CDDF0895E894F7FF02C074
:10164E00C8DF6894B7FF06C0A095B095119600F854
:10165E00039400FA0895ED91FC9111970895059069
:10166E00F491E02D0895E881F9816A817B810895D6
:10167E00A881B9818A819B810895E883F9836A8361
:10168E007B8308957A936A93FA93EA9308959A93D3
:10169E008A93BA93AA930895182E862F612D192E28
:1016AE00972F712D1B2EBF2FF12D1A2EAE2FE12D40
:1016BE000895309760407040089500240A160B0676
:1016CE000806090608955A934A933A932A931A9351
:1016DE000A9308955D814C813B812A81198108818D
:1016EE000895AC0FBD1F05900D928A95E1F70895F0
:00000001FF
