:020000000C945E
:100002006F000C9400000C9400000C9400000C94FF
:1000120000000C9400000C9424010C9400000C9439
:1000220000000C9400000C9400000C9400000C944E
:1000320000000C9400000C9400000C9400000C943E
:1000420000000C9400000C9400000C942F070C94F8
:10005200000000000200523A25326420473A25325D
:100062006420423A253264202000202020204D6165
:10007200752064656E20202020200020204D6175AF
:100082002078616E68206C612020200020202020D2
:100092004D617520646F20202020202000204B68B5
:1000A2006F6E67207861632064696E6820002D4E50
:1000B200414E000001002D4E414E00494E460000C7
:1000C200070001000200540001000B00560001006D
:1000D200A502B6000100A202C2000000F894EE27B9
:1000E200ECBBF1E0FBBFEBBFE5BF8DE0A2E0BB27BD
:1000F200ED938A95E9F780E098E0A0E6ED93019709
:10010200E9F7E4ECF0E085919591009761F0A59113
:10011200B59105901590BF01F00105900D920197E0
:10012200E1F7FB01F0CFEFE5EDBFE8E0EEBFC0E69F
:10013200D2E00C94C701EAE1F0E0E0937C02F09394
:100142007D02EEE7F2E0ACE1B0E0A083B183E0E84B
:10015200F2E0A2E1B0E0A083B183E2E8F2E0A5E13F
:10016200B0E0A083B183E4E8F2E0AAE1B0E0A083CA
:10017200B183E6E8F2E0ACE1B0E0A083B183E8E865
:10018200F2E0AEE4B0E0A083B183EAE8F2E0A1E5F8
:10019200B0E0A083B183ECE8F2E0A6E4B0E0A08393
:1001A200B183EEE8F2E0A9E4B0E0A083B183E0E934
:1001B200F2E0AEE4B0E0A083B183E2E9F2E0A4E6CB
:1001C200B0E0A083B183E4E9F2E0A2E3B0E0A0836F
:1001D200B183E6E9F2E0A7E3B0E0A083B183E8E906
:1001E200F2E0AEE1B0E0A083B183EAE9F2E0A0E39D
:1001F200B0E0A083B183ECE9F2E0AAE3B0E0A0832F
:10020200B183EEE9F2E0AEE3B0E0A083B1830895FA
:10021200929893980895929A01C09298939A089509
:100222000E94B50CBB24E2E0EB15E9F7F301E419F7
:10023200F5098F01A0EEBEE20E94210C9F010E94EF
:10024200BC0C24960895EA93FA93EFB7EA9386B426
:1002520097B4E1E0EB1539F43401E0E0F0E0FDBDE4
:10026200ECBDE2E0BE2EBB2019F42401E1E0BE2E7B
:10027200E991EFBFF991E99118951A930A93E0E099
:10028200E0937002E0937102E0937202E0937302D2
:10029200E0937402E0937502E0937602E0937702B2
:1002A200E0937802E0937902E0937A02E0937B0292
:1002B200AFDF0E940209E0937002F0937102609333
:1002C2007202709373020E940709A5DF0E9402095D
:1002D200E0937402F0937502609376027093770252
:1002E2000E9407099ADF0E940209E0937802F093C4
:1002F200790260937A0270937B020E94070900E000
:1003020010E00330E0E01E07E4F50E940B09E45818
:10031200FD4F0E9411090E94AE0C68F10E940B0968
:10032200E258FD4F0E9411090E94A90C20F10E947F
:100332000B09E058FD4F0E941F090E94AE0CD8F035
:100342000E940B09EE57FD4F0E941F090E94A90C43
:1003520090F00E940B09EC57FD4F0E942D090E945C
:10036200AE0C48F00E940B09EA57FD4F0E942D097E
:100372000E94A90C08F402C0F80105C00F5F1F4FCC
:10038200C0CFE5E0F0E0099119910895E0E0EABB01
:10039200EBBBE7BBE8BBE4BBE5BBEFE0E1BBE0E006
:1003A200E2BBE3BFE2BFECBFEFBDE1E4EEBDE0E0E4
:1003B200EDBDECBDE7BDE6BDEBBDEABDE9BDE8BD07
:1003C200E2BDE5BDE4BDE3BDE0E2E9BFE0E0E5BFDB
:1003D200E4BFEAB9E0E8E8B9E0E0E0BFE6B9EDB9C8
:1003E200E6BF909A919AA7DE7894E7E2EA93E0E179
:1003F200EA93A2E09BD041DF8F010E943B09E8E52E
:10040200F0E0FA93EA93E0917002F0917102609148
:100412007202709173020E948E0CE0917402F0914C
:10042200750260917602709177020E948E0CE091C3
:100432007802F091790260917A0270917B020E94B7
:100442008E0C8CE00E9432066096E0E0EA93A0E017
:10045200BAD0A0E6B2E0A8D0E0E0EA93A1E0B3D03F
:10046200F801309729F40E943B09ECE6F0E01AC04B
:10047200E130A0E0FA0729F40E943B09EDE7F0E041
:1004820011C0E230A0E0FA0729F40E943B09EEE82D
:10049200F0E008C0E530A0E0FA0769F40E943B09E9
:1004A200EFE9F0E0FA93EA9380E00E9432062496A4
:1004B200A0E6B2E079D0A8EEB3E00E94440A9BCF56
:1004C200FFCFE0E1E0B90895E4EAE6BFE6B7E078FD
:1004D200E9F3E1B10895E4E9E6BF0895AA931A9316
:1004E20010E0EA81EE0F1E2FE9811E2B106413B972
:1004F200E4E8E6BFE6B7E078E9F3E1B1188126C0A7
:10050200AA93E881E3B9E4E8E6BFE6B7E078E9F365
:10051200E1B121960895AA93D4DFD6DFE981EA9367
:10052200A0E0DCDFA881ECDFD6DF4BC0AA93E98133
:10053200E093A302C880EA81E093A402A2E008D07B
:10054200A8E206D0ACE004D0A0E802D02396089539
:100552000E944009EC60EA83E12FE860EB83E02F20
:10056200EC60EC83E02FE8600CC00E944009ED6073
:10057200EA83E12FE960EB83E02FED60EC83E02F6B
:10058200E960ED83E091A402EA93AB810E944D09F8
:10059200AC810E944D09AD810E944D09AE81BBDF45
:1005A2001981088127960895BA93AA93A881B981DF
:1005B200EC91E03031F0ED91A883B983AE2FD5DF15
:1005C200F5CF22960895AA9328970E945309E0E452
:1005D200EA83E0E0EB83E4E1EC83E0E0ED83E4E551
:1005E200EE83E0E0EF83A885CA1618F4EC2DE15003
:1005F200E887E885F0E0DE01EE0FFF1FAE0FBF1FB8
:10060200EC91A985EA0FE068AE2FA2DF2A96089541
:10061200BA93AA931A930A93AA81BB8112960E9453
:10062200750C309729F1AA81BB8114960E94750C32
:100632008F01309761F00230E0E01E0780F0F80190
:1006420031978F01AA81BB811496ED93FC93AA8105
:10065200BB8112960E9457093197AC81A083AA816F
:10066200BB810E94750CFF2312F00E94570906C03D
:10067200AA81BB81EFEFFFEFED93FC931981088113
:1006820025960895BA93AA9324970E945309E0E805
:10069200EA83EFE3EB830E94B50CEE85FF85EF3F23
:1006A200AFEFFA0749F4E885F985FA93EA93A0EBEC
:1006B200B0E00E949408B7C0EF3FAFE7FA0749F4F1
:1006C200E885F985FA93EA93A1EBB0E00E949408D9
:1006D200AAC0AB85A73010F0E6E0EB871B85E12FBF
:1006E2001150E03019F00E945D09F9CFEC85FD85CB
:1006F2006E857F850E94A50C21F430E00E945D0981
:100702002DC03B850E946C0909F008F40BC00E94C1
:100712005D090E946C0928F00E9477090E947C09F9
:10072200F8CF0DC00E946C0940F40E9477090E9424
:1007320088090E948F093150F5CF0E945D09EC852E
:10074200FD856E857F850E9494090E948F090E9413
:100752006C0920F00E9477090E947C0910E0EB8569
:10076200E117A8F1AC81BD818E819F810E949B0916
:100772000E949409DF01CB010E94EB08EC83FD8308
:100782006E837F830E9477090E94920B0E94810AE6
:100792000E2F0E94A2090E94A909FF276627772728
:1007A2000E94BA0AAC81BD818E819F810E94440B56
:1007B2000E9477090E94AE090E948F09E12F1F5FF4
:1007C200E03069F60E94A209EEE2EC93C8CF0E94E3
:1007D200B3093197AA85A08330302CF43195A885CE
:1007E200B985EDE203C0A885B985EBE2EC930E94DE
:1007F200B3090E94B3093197BF01A32FEAE00E9417
:100802001C0CE05DDB01EC930E94B3093197BF0140
:10081200A32FEAE00E94590CE05DDB01EC93A8856E
:10082200B985E0E0EC930E94BC0C60960895BA93FF
:10083200AA93EF9761970E94B30C10E0FE01E85A69
:10084200FF4F0190F081E02DE887F987FE01EA5A17
:10085200FF4F0190F081E02DEE83FF83AE81BF81D7
:10086200E0E0F0E0ED93FC93DE01A45ABF4F0E945A
:1008720057093197E4912E2FE03009F4E9C1E12FB5
:10088200E03039F4253211F411E002C00E94B909B6
:10089200DEC1E130C1F4253219F40E94B909D6C192
:1008A20012E0E0E0ED8B00E02D3211F401E0CFC167
:1008B2002B3219F4EBE2ED8BCAC1203219F4E0E2DB
:1008C200ED8BC5C102C0E23039F450E013E02033B1
:1008D20011F40068BCC102C0E33091F4203310F07F
:1008E2002A3308F007C0AAE05A9F502DE22FE053A6
:1008F2005E0FADC140E02E3211F414E0A8C10FC06A
:10090200E43099F4203310F02A3308F008C0006272
:10091200AAE04A9F402DE22FE0534E0F98C12C3699
:1009220019F4026015E093C103C0E53009F08FC1EC
:10093200E22FE33659F40E94C0090E94C7090E94BF
:10094200C009A481AA930E94CE0980C1E53411F0A6
:10095200E53609F403C0E63609F048C0FE01769692
:10096200EE87FF870E94D4090E94790C0E94DB095E
:100972000E94E009AD85AA2332F0AD89AB3259F06D
:10098200A03281F017C00E94E2090E944E0A0E9422
:10099200DB09EDE2ED8B07FF05C0ED89EA930E94CA
:1009A200CE0908C0EE85FF853196EE87FF87319725
:1009B200AD89A08305FF46E0263651F40E94E20984
:1009C2000E948E0C4A93AB89BC890E94660609C0BC
:1009D2000E94E2090E948E0C4A932A93AC89BD8937
:1009E20051DEFE0176960E94E7091EC0E33739F414
:1009F2000E94E0090E94EF090E94E7090EC0E03759
:100A0200C1F40E94E0090E94EF09EE87FF87AE85DC
:100A1200BF850E94AD081E2F08600F77403011F08D
:100A2200411708F001C0142F40E0E0E0EC8B30E009
:100A32006DC0E43611F0E93611F4046002C0E53706
:100A4200A1F4EAE0EC8B01FF08C0E0E0FAEC6AE90D
:100A52007BE30E94F4091AE022C0E0E1F7E260E0E1
:100A620070E00E94F40915E01AC0E83511F408603C
:100A720003C0E83709F0EAC0E0E1EC8B01FF08C0EF
:100A8200E0E0F0E060E070E10E94F40918E007C0E5
:100A9200E0E0F0E160E070E00E94F40914E0403030
:100AA20011F00F7701C041E001FF08C00E94E00988
:100AB2000E94D40914960E94790C0FC002FF07C04D
:100AC2000E94E0090E94EF090E94090C06C00E94E0
:100AD200E0090E94EF0966277727EA87FB876C8780
:100AE2007D8702FF12C0AD85AA2342F40E94E2096B
:100AF2000E94FB0B0E94DB09EDE2ED8BED89E030F9
:100B020019F01F5F4F5F01C00B7F342F00FD14C02F
:100B1200151710F4351708F00FC007FF08C002FFC1
:100B220004C00B7F2D89115001C020E301C020E2D7
:100B32000E94B9095150ECCF141790F4006102FFE2
:100B420006C00E94F90909F0515011504150E0E3EA
:100B5200EA930E94CE09503009F051504150ECCF37
:100B6200312FEC89E030B9F43030A1F003FF06C038
:100B7200EE85FF852591EE87FF8705C0AE85BF858F
:100B82002D91AE87BF870E94B909503009F05150AC
:100B92003150EACF51C00E940B0A0E94340C2E2F12
:100BA2002A3030F003FF02C0295C01C0295A01C07B
:100BB200205D04FD21C0213360F4A889B9898A89A6
:100BC2009B89A130E0E0BE07E0E08E07E0E09E07EF
:100BD20009F40BC0431740F4531710F000FF01C093
:100BE20010C020E207FF08C020E3006102FF04C03A
:100BF2000E94F90909F051500E94B909503009F0D8
:100C0200515031500E940B0A0E94650C0E94DB0970
:100C1200EC89A889B9898A899B89FF276627772762
:100C22000E94340C0E94F409E889F9896A897B8957
:100C32000E94A50C09F0AFCF00FF08C0503031F080
:100C42005150E0E2EA930E94CE09F8CF10E00CCEB8
:100C5200AE81BF810E94750C0E94BA0CEF966F960E
:100C62000895FF92F82E26970E94B50C0E94140A4E
:100C7200309719F4EFEFFFEF23C0DE0116960E94C2
:100C8200F70B8D010E94140AEE83FF83E0E0E887F0
:100C9200E987DE011A960E94F70B0E94750CFA93FF
:100CA200EA931A930A93E9E0F3E0FA93EA93DE01F6
:100CB2001A96BDDD9F01AE81BF81E0E0EC93F901A0
:100CC2000E94BC0C2A96FF900895BA93AA93249787
:100CD2000E945309E0E0EA83EFE3EB831A930A935D
:100CE200EB85FC85EF3FAFEFFA0739F40E941B0A50
:100CF200A8EBB0E00E949408ADC0EF3FAFE7FA075F
:100D020039F40E941B0AA9EBB0E00E949408A2C029
:100D1200AC85AA2362F4E985FA856B857C850E94FD
:100D22004E0A0E94200A0E94250AEDE2EC93A88551
:100D3200A73010F0E6E0E8871885E12F1150E03087
:100D420039F00E942C0A0E949B090E94310AF5CFB9
:100D52000E94360A0E94F40A0E94200A10E0E0E093
:100D6200F0E060E87FE30E94310A0E94360A0E94A6
:100D7200D70B88F00E942C0A0E9488090E94310A2F
:100D82001F5F173238F00E941B0AADEBB0E00E94E1
:100D9200940860C0EACF103029F40E94250AE0E3EB
:100DA200EC932BC0E12F1150E03039F10E942C0A54
:100DB2000E949B090E949409DF01CB010E94EB086B
:100DC2000E94310A0E94360A0E94920B0E94810AF6
:100DD2000E2F0E94250A0E94A909F0E00E942C0A07
:100DE2000E94090C0E94BA0A0E94440B0E943F0A08
:100DF2000E94AE090E94200AD5CFE885E03031F189
:100E02000E94250AEEE2EC93E885E150E887EF5F65
:100E1200E9F00E943F0A0E9488090E94200AE9859F
:100E2200FA856B857C850E94810A0E2F0E94250A15
:100E32000E94A909F0E00E943F0A0E94090C0E9448
:100E4200BA0A0E94AE090E94200ADECFAE81BF819B
:100E5200E0E0EC93198108812D9608950A921A9286
:100E6200FA926A937A938A939A93AA93BA93EA9399
:100E7200FA93EFB7EA930E94B30C1091A10200918A
:100E8200A0023091AC022091A202E12FA091AD020A
:100E9200B091AE02F0E0EA0FFB1FAF01E1B1E87FD3
:100EA200E83011F420E002C0E03119F4E091A90227
:100EB20010C0E83111F0E83221F5031780F4E02F79
:100EC2000F5FA091AA02B091AB02F0E0AE0FBF1F7C
:100ED200EC91E3B9E6B7EF70E068E6BF11C0E091CC
:100EE200AF021E1760F4E091A902E160E093A9024B
:100EF200E89420F8E6B7EF70E06AE6BFFBC033C0C3
:100F0200F9C0E03529F4E3B1DA01EC931F5F02C0C6
:100F1200E03471F4E091AF02E1501E1720F0E6B721
:100F2200EF70E06803C0E6B7EF70E06CE6BFE2C0C6
:100F3200E83529F4E3B1DA01EC931F5F02C0E03235
:100F420009F402C0E03309F402C0E83469F4203045
:100F520051F420FE03C0031728F005C0E091AF0250
:100F62001E1708F424E0C0C0E83329F422E0E6B7F3
:100F7200EF70E068BCC0E83611F0E83711F422E007
:100F820005C0E03611F0E03791F420E010E0E8947B
:100F920020F8E091B002E03029F421E0E6B7EF70EA
:100FA200E06803C0E6B7EF70E06CE6BFA3C0E038CC
:100FB20011F0E03929F520FE02C021E095C0E3B12D
:100FC200DA01EC931F5FE091B0021E17B0F4E091DA
:100FD200B102F091B202309711F426E085C0A0E090
:100FE200E091B102F091B2020995E03029F0E6B742
:100FF200EF70E06CE6BF7EC002C0689420F802C0C9
:10100200E83809F402C0E83929F4E6B7EF70E0687D
:10101200E6BF70C0E03AA9F4E6B7EF70E06CE6BF55
:10102200689421F8E091B102F091B202309739F060
:10103200A1E0E091B102F091B202099501C026E06F
:1010420059C0E03B11F422E002C0E83AB9F4E09161
:10105200B302F091B402309759F0A0E0E091B302EC
:10106200F091B40209953E2FE03011F020E002C069
:1010720026E03AC000E0E89420F802C0E83BE1F440
:1010820020FE02C021E030C0E02F0F5FA091AA0233
:10109200B091AB02F0E0AE0FBF1FEC91E3B90317C2
:1010A20020F4E6B7EF70E06C05C0689420F8E6B76C
:1010B200EF70E068E6BF1EC0E03C11F0E83C89F446
:1010C200E6B7EF70E06CE6BFE091B302F091B402D4
:1010D200309731F0A1E0E091B302F091B4020995AA
:1010E20007C0E03039F423E0E6B7EF70E06DE6BF09
:1010F200689421F81093A1020093A0022093A20207
:101102003093AC020E94BA0C2696E991EFBFF99196
:10111200E991B991A9919991899179916991F990FE
:10112200199009901895BA93AA93E991F991A99106
:10113200B991CD0105900D920020E1F7FC010895CF
:10114200BA93AA93A991B991EE27FF276D916623CD
:1011520011F03196FBCF0895BA93AA93AA27BB2721
:10116200E991F9910590002011F01196FBCFFD0154
:1011720008950E94930C7B816A81F981E88177FB53
:10118200770F67FD7160972F9E5781F078F0983145
:1011920090F4AA27BB27882708948795B795A79527
:1011A2009A95D1F7EA23FB23682305C0E8947727B1
:1011B200EE27FF2766276F77769508F4606877F940
:1011C200A991B99189919991EA17FB076807790763
:1011D20097FB08950E94930C0E94840C0E94BA0807
:1011E2000E94890C19F40E947F0C09C0E6F70E9444
:1011F2007F0CA0E0B0E080E89FE30E94ED0A249615
:1012020008950E941101662777270895AAE0B0E0A9
:101212000C94440AACE0A09FF001A19FF00D089548
:10122200DF010E94750CA0917002B0917102809151
:101232007202909173020E94090C0895DF010E94CC
:10124200750CA0917402B091750280917602909112
:1012520077020E94090C0895DF010E94750CA0918B
:101262007802B091790280917A0290917B020E9479
:10127200090C0895E0E6F2E0FA93EA930895AA933E
:1012820024971A930A93EE81E07F1E2FEE81E29556
:10129200E07F0E2FE12F08950E948C02E091A402BC
:1012A200EA930895E0E0E883E9830895ED91FD91E2
:1012B2003196FE93EE930895AC81BD818E819F811C
:1012C200E0E0F0E060E271E40E94440BEC83FD8315
:1012D2006E837F830895EC81FD816E817F81AC8571
:1012E200BD858E859F850E94D70B0895AC85BD85EF
:1012F2008E859F850895EDECFCEC6CEC7DE30E94FD
:10130200440BEC87FD876E877F873F5F0895E0E09F
:10131200F0E060E271E40E94440B0895EC87FD87DF
:101322006E877F870895A0E0B0E080E09FE30E948F
:10133200F40A0895EDECFCEC6CEC7DE30E94440BA6
:101342000895A885B9851196A887B9871197089538
:10135200E02FE05DEC93E02F08950E94980C0E942C
:10136200ED0A0895E885F9853196E887F9870895A9
:101372002A93AF81B885E985FA8509950895FE011A
:10138200E65AFF4F0190F081E02D08953497DE0177
:10139200A65ABF4FED93FC930895AF81B885E985B6
:1013A200FA8509950895DE01A65ABF4F0D90BC91AA
:1013B200A02D0895EA87FB876C877D870895DFDF7C
:1013C200E5CFEA85FB856C857D850895EE87FF87ED
:1013D200AE85BF850E94A1081E2F0895E4DF1496F2
:1013E2000E94750C0895E88BF98B6A8B7B8B0895AC
:1013F2000B7FED89EA93DE01A95ABF4F0D90BC9194
:10140200A02DFE01E75AFF4F0190F081E02D0995D2
:1014120050300895E889F9896A897B89AA85BB8554
:101422008C859D850895DE011C960E94F70B0E9413
:10143200750C0895EE81FF81FA93EA930895E98786
:10144200FA876B877C870895AE81BF811196AE8340
:10145200BF8311970895AA81BB818C819D810895D4
:10146200EA83FB836C837D830895EA81FB816C812F
:101472007D81A985BA858B859C850895A985BA85C4
:101482008B859C850895109639F088EB9BE0019737
:10149200F1F7A8951197C9F7089530976040704009
:1014A20009F070580895552342F4503811F4E0FFC2
:1014B20004C03196691F791F6BF050E8572711F469
:1014C2005F93CFC05F3F31F0660F000C5795679571
:1014D200752F08955F9300200AF0CFC0C8C050E86E
:1014E200192E1522880F991F9527550F879550E8B9
:1014F200072E0522660F771F7527550F67950895EA
:10150200689401C0E8945F93F2DF703818F07F3F6F
:1015120008F4A7C056E1571BAAF4519558300EF4AF
:10152200593030F0EFEFFFEF6FEF7FE777F91AC036
:1015320077275523B9F0EE0FFF1F661F771F5A95C5
:10154200D1F710C07727583028F0EF2FF62F672FEA
:101552005850F9CF552331F076956795F795E79571
:101562005A95D1F700200AF445D15F910895689405
:1015720001C0E894309760407040B1F0002426F03A
:10158200772312F4009436D1172E7EE1112032F027
:101592007A95EE0FFF1F661F111CF9CFEF2FF62F62
:1015A200612D5F938ADF5F9108954F93AF01FD0133
:1015B200DA01AB01BC01CA01402D012C142E4F915E
:1015C2000895EA0FFB1F681F0895E095F095609556
:1015D200EF5FFF4F6F4F08955F9381DF903871F196
:1015E20050E8152604C05F937ADF903839F17038DD
:1015F20021F1572F591B2BF112F4D7DFFACF5831B3
:1016020018F0AA27BB278827583028F0AB2FB82F0D
:1016120088275850F9CF552329F08695B795A79575
:101622005A95D9F7502D512572F0CBDF38F46795D2
:10163200F795E795739513F420C0B7DF3EDF5F910E
:101642000895D8F7FBCFEA1BFB0B680B51F010F49F
:101652000094BBDF662392F3EE0FFF1F661F7A959D
:10166200CBF7EE27FF27662777275F910895EFEFE5
:10167200FFEF6FE77FEF5F910895EFEFFFEF6FE707
:101682007FE75F9108955F932ADF703851F39038B6
:1016920041F301240894791F23F41CF300203AF348
:1016A200ECCF0F921F932F933F934F931127222733
:1016B2009927689FA0018F9F302D410D591F6B9F65
:1016C200300D411D591F8E9F27D0BF9F25D06A9F85
:1016D20023D0BE9F1DD0AF9F1BD0AE9F110D291FDF
:1016E200391F491F591FE32FF42F652F522F4F9196
:1016F2003F912F911F910F9066232AF0550FEE1FF5
:10170200FF1F661F02C073954BF2CDDE5F910895F5
:10171200100D211D391F02C0200D311D491F591FF7
:1017220008955F93DCDE703821F411200AF49FCF14
:10173200A4CF903809F495CF01240894970B1BF499
:10174200D4F30020F3CF792F1F932F933F934F931E
:1017520011241127222733274427552790E2AE1759
:10176200BF078607410730F0AE1BBF0B860B410B4C
:10177200089401C08894551F221F331F111CAA1FF1
:10178200BB1F881F441F9A9551F7F901612D4F9194
:101792003F912F911F91662332F0550FEE1FFF1FCD
:1017A200661F7A9543F27FDE5F91089599239AF03E
:1017B200772342F0971748F029F4AE17BF07860740
:1017C20020F031F09894889408959894089408959C
:1017D2001894889408957723C2F7971798F3A9F776
:1017E200EA17FB07680788F399F3ECCF0024AF0DE3
:1017F200B01D0895F09560957095E195FF4F6F4F7C
:101802007F4F0895FE2FFF0FFF0B6F2F7F2F08953D
:101812006F2F660F660B762F0895002498E0AA0FAB
:10182200001C0E1A10F40E0E01C0A1609A95B9F7B1
:10183200EA2FA02D08954CD0F0DF0EF4E195089523
:101842000024112490E1AA0FBB1F001C111C0E1AC8
:101852001F0A18F40E0E1F1E01C0A1609A9599F777
:10186200FD01D00108953F934F935F93002411240B
:101872004427552730E2AA0FBB1F881F991F001C5F
:10188200111C441F551F0E1A1F0A460B570B28F432
:101892000E0E1F1E461F571F01C0A1603A9559F731
:1018A200FD01BC01D001CA015F914F913F910895A2
:1018B200E894A7FF02C0A1956894E7FDE195ADDF2A
:1018C200EA2F0EF4E1950895CEDFFD01BC010895E3
:1018D200E894E7FF02C0E1956894A7FF04C0A195D0
:1018E20000F8039400FA0895ED91FC911197089580
:1018F200ED91FD916D917C9113970895E881F981A5
:101902006A817B810895A881B9818A819B8108952A
:10191200E883F9836A837B8308957A936A93FA93BF
:10192200EA9308959A938A93BA93AA930895182EE4
:10193200862F612D192E972F712D1B2EBF2FF12D62
:101942001A2EAE2FE12D0895309760407040089511
:10195200EA17FB07680779070895AE17BF078607DE
:10196200970708955A934A933A932A931A930A939C
:1019720008955D814C813B812A81198108810895F6
:00000001FF
