:0A0000000C946F000C9411010C9495
:10000A0000000C9400000C9400000C9400000C9466
:10001A0000000C9400000C9400000C9400000C9456
:10002A0000000C9420010C9400000C9400000C9425
:10003A0000000C9400000C9400000C9400000C9436
:10004A0000000C944E070C94000000000000523A85
:10005A0025326420473A25326420423A2532642008
:10006A002000202020204D61752064656E2020200C
:10007A0020200020204D61752078616E68206C6117
:10008A0020202000202020204D617520646F202030
:10009A002020202000204B686F6E67207861632043
:1000AA0064696E6820002D4E414E000001002D4EFD
:1000BA00414E00494E46000007000100020054006C
:1000CA0002000400560001009302B60001009202E9
:1000DA00C2000000F894EE27ECBBF1E0FBBFEBBFD7
:1000EA00E5BF8DE0A2E0BB27ED938A95E9F780E0B2
:1000FA0098E0A0E6ED930197E9F7E4ECF0E085914A
:10010A009591009761F0A591B59105901590BF0161
:10011A00F00105900D920197E1F7FB01F0CFEFE5B1
:10012A00EDBFE8E0EEBFC0E6D2E00C94E501EAE1FB
:10013A00F0E0E0936C02F0936D02EEE6F2E0ACE1DF
:10014A00B0E0A083B183E0E7F2E0A2E1B0E0A083EF
:10015A00B183E2E7F2E0A5E1B0E0A083B183E4E78E
:10016A00F2E0AAE1B0E0A083B183E6E7F2E0ACE115
:10017A00B0E0A083B183E8E7F2E0AEE4B0E0A083A8
:10018A00B183EAE7F2E0A1E5B0E0A083B183ECE74E
:10019A00F2E0A6E4B0E0A083B183EEE7F2E0A9E4DE
:1001AA00B0E0A083B183E0E8F2E0AEE4B0E0A0837F
:1001BA00B183E2E8F2E0A4E6B0E0A083B183E4E828
:1001CA00F2E0A2E3B0E0A083B183E6E8F2E0A7E3BD
:1001DA00B0E0A083B183E8E8F2E0AEE1B0E0A0834A
:1001EA00B183EAE8F2E0A0E3B0E0A083B183ECE8EF
:1001FA00F2E0AAE3B0E0A083B183EEE8F2E0AEE376
:10020A00B0E0A083B1830895969897980895969A36
:10021A0001C09698979A0895EA93FA93EFB7EA93EA
:10022A0020FE04C0F20131962F013197E991EFBF08
:10023A00F991E9911895EA93EFB7E89420F8EFBF9E
:10024A00E99118950E94D90C689420F8E4E4E2BF79
:10025A00E1E0E9BFE3E0E3BFEBB7E064EBBF4424CE
:10026A00552420FCFECFE0E0E9BFE3BFEBB7EBBFCC
:10027A0092018901F801662777279EC00E94D90C4E
:10028A00E0E0E0936002E0936102E0936202E093AF
:10029A006302E0936402E0936502E0936602E093EE
:1002AA006702E0936802E0936902E0936A02E093CE
:1002BA006B0220E030E02530E0E03E073CF5A4DFA9
:1002CA00C1DF0E9421090E942D0C0E942A090E9466
:1002DA0033099DDFB7DF0E9437090E942D0C0E9467
:1002EA0040090E94330995DFADDF0E9449090E9447
:1002FA002D0CE0936802F093690260936A0270938E
:10030A006B020E9433092F5F3F4FD5CF0E9421090C
:10031A000E9452090E942A090E9437090E94520922
:10032A000E9440090E9437090E9452090E9440090E
:10033A0000E010E00330E0E01E07E4F50E945909EE
:10034A00E459FD4F0E945F090E94D20C68F10E9495
:10035A005909E259FD4F0E945F090E94CD0C20F114
:10036A000E945909E059FD4F0E9466090E94D20C69
:10037A00D8F00E945909EE58FD4F0E9466090E9462
:10038A00CD0C90F00E945909EC58FD4F0E946D095E
:10039A000E94D20C48F00E945909EA58FD4F0E9467
:1003AA006D090E94CD0C08F402C0F80105C00F5F68
:1003BA001F4FC0CFE5E0F0E00E94E00C24960895BC
:1003CA006097E0E0EABBEBBBE7BBE8BBE4BBE5BB9D
:1003DA00E0EFE1BBE0E0E2BBE3E0E3BFE4E4E2BF7D
:1003EA00E0E0ECBFEFBDEEBDEDBDECBDE7BDE6BDA7
:1003FA00EBBDEABDE9BDE8BDE2BDE5BDE4BDE3BDD7
:10040A00E1E0E9BFEBB7E064EBBFE2E0E5BFE0E0C3
:10041A00E4BFE0E4EABFE0E0EAB9E0E8E8B9E0E036
:10042A00E0BFE6B9EDB9E6BF949A959A80DE789472
:10043A00E7E2EA93E0E1EA93A2E099D01FDF8F01B5
:10044A000E947409E8E5F0E0FA93EA93E091600209
:10045A00F091610260916202709163020E94B20C93
:10046A00E0916402F0916502609166027091670200
:10047A000E94B20CE0916802F091690260916A02EE
:10048A0070916B020E94B20C8CE00E945106609639
:10049A00E0E0EA93A0E0B2D0DE01A1D0E0E0EA9386
:1004AA00A1E0ACD0F801309729F40E947409ECE677
:1004BA00F0E01AC0E130A0E0FA0729F40E947409BA
:1004CA00EDE7F0E011C0E230A0E0FA0729F40E945B
:1004DA007409EEE8F0E008C0E530A0E0FA0761F43C
:1004EA000E947409EFE9F0E0FA93EA9380E00E942F
:1004FA0051062496DE0173D0A8EEB3E00E94760A74
:10050A009DCFFFCFE0E1E0B90895E4EAE6BFE6B7A0
:10051A00E078E9F3E1B10895E4E9E6BF0895AA9322
:10052A001A9310E0EA81EE0F1E2FE9811E2B106448
:10053A0013B9E4E8E6BFE6B7E078E9F3E1B1188178
:10054A0022C0AA93E881E3B9E4E8E6BFE6B7E07817
:10055A00E9F3E1B121960895AA93D4DFD6DFE981C0
:10056A00EA93A0E0DCDFA881ECDFD6DF45C0AA93DE
:10057A0089809880BA80A2E008D0A8E206D0ACE0D0
:10058A0004D0A0E802D0239608950E947809EC606E
:10059A00EA83E12FE860EB83E02FEC60EC83E02F45
:1005AA00E8600CC00E947809ED60EA83E12FE960F7
:1005BA00EB83E02FED60EC83E02FE960ED83BA92E4
:1005CA00AB81CADFBA92AC81C7DFBA92AD81C4DF10
:1005DA00BA92AE81C1DF1981088127960895BA932C
:1005EA00AA93A881B981EC91E03031F0ED91A8830A
:1005FA00B983AE2FD7DFF5CF22960895AA9328970D
:10060A000E948509E0E4EA83E0E0EB83E4E1EC831D
:10061A00E0E0ED83E4E5EE83E0E0EF83A8859A1657
:10062A0018F4E92DE150E887E885F0E0DE01EE0FE5
:10063A00FF1FAE0FBF1FEC91A985EA0FE068AE2F2E
:10064A00A4DF2A960895BA93AA931A930A93AA81C1
:10065A00BB8112960E94990C309729F1AA81BB811D
:10066A0014960E94990C8F01309761F00230E0E0F5
:10067A001E0780F0F80131978F01AA81BB81149679
:10068A00ED93FC93AA81BB8112960E948909319746
:10069A00AC81A083AA81BB810E94990CFF2312F02E
:1006AA000E94890906C0AA81BB81EFEFFFEFED9393
:1006BA00FC931981088125960895BA93AA932497E1
:1006CA000E948509E0E8EA83EFE3EB830E94D90CF4
:1006DA00EE85FF85EF3FAFEFFA0749F4E885F98524
:1006EA00FA93EA93A0EBB0E00E94B308B7C0EF3FD9
:1006FA00AFE7FA0749F4E885F985FA93EA93A1EB9B
:10070A00B0E00E94B308AAC0AB85A73010F0E6E0BB
:10071A00EB871B85E12F1150E03019F00E948F09F9
:10072A00F9CFEC85FD856E857F850E94C90C21F481
:10073A0030E00E948F092DC03B850E949E0909F076
:10074A0008F40BC00E948F090E949E0928F00E949B
:10075A00A9090E94AE09F8CF0DC00E949E0940F473
:10076A000E94A9090E94BA090E94C1093150F5CF15
:10077A000E948F09EC85FD856E857F850E94C609DA
:10078A000E94C1090E949E0920F00E94A9090E94A4
:10079A00AE0910E0EB85E117A8F1AC81BD818E812D
:1007AA009F810E94CD090E94C609DF01CB010E94E8
:1007BA000A09EC83FD836E837F830E94A9090E9444
:1007CA00C40B0E94B30A0E2F0E94D4090E94DB09AF
:1007DA00FF27662777270E94EC0AAC81BD818E81AC
:1007EA009F810E94760B0E94A9090E94E0090E943B
:1007FA00C109E12F1F5FE03069F60E94D409EEE2D9
:10080A00EC93C8CF0E94E5093197AA85A0833030BE
:10081A002CF43195A885B985EDE203C0A885B98580
:10082A00EBE2EC930E94E5090E94E5093197BF01CA
:10083A00A32FEAE00E94530CE05DDB01EC930E94D7
:10084A00E5093197BF01A32FEAE00E947D0CE05D24
:10085A00DB01EC93A885B985E0E0EC930E94E00CFB
:10086A0060960895BA93AA93EF9761970E94D70C5E
:10087A0010E0FE01E85AFF4F0190F081E02DE88771
:10088A00F987FE01EA5AFF4F0190F081E02DEE83CD
:10089A00FF83AE81BF81E0E0F0E0ED93FC93DE01DF
:1008AA00A45ABF4F0E9489093197E4912E2FE03054
:1008BA0009F4E9C1E12FE03039F4253211F411E0ED
:1008CA0002C00E94EB09DEC1E130C1F4253219F4FD
:1008DA000E94EB09D6C112E0E0E0ED8B00E02D3278
:1008EA0011F401E0CFC12B3219F4EBE2ED8BCAC14E
:1008FA00203219F4E0E2ED8BC5C102C0E23039F4CE
:10090A0050E013E0203311F40068BCC102C0E330A8
:10091A0091F4203310F02A3308F007C0AAE05A9F56
:10092A00502DE22FE0535E0FADC140E02E3211F49C
:10093A0014E0A8C10FC0E43099F4203310F02A3330
:10094A0008F008C00062AAE04A9F402DE22FE05357
:10095A004E0F98C12C3619F4026015E093C103C0FA
:10096A00E53009F08FC1E22FE33659F40E94F2090B
:10097A000E94F9090E94F209A481AA930E94000A1E
:10098A0080C1E53411F0E53609F403C0E63609F012
:10099A0048C0FE017696EE87FF870E94060A0E94EB
:1009AA009D0C0E940D0A0E94120AAD85AA2332F0FC
:1009BA00AD89AB3259F0A03281F017C00E94140AF7
:1009CA000E94800A0E940D0AEDE2ED8B07FF05C026
:1009DA00ED89EA930E94000A08C0EE85FF853196E8
:1009EA00EE87FF873197AD89A08305FF46E026365B
:1009FA0051F40E94140A0E94B20C4A93AB89BC8932
:100A0A000E94850609C00E94140A0E94B20C4A93E9
:100A1A002A93AC89BD8951DEFE0176960E94190A95
:100A2A001EC0E33739F40E94120A0E94210A0E946A
:100A3A00190A0EC0E037C1F40E94120A0E94210A64
:100A4A00EE87FF87AE85BF850E94CC081E2F0860FF
:100A5A000F77403011F0411708F001C0142F40E021
:100A6A00E0E0EC8B30E06DC0E43611F0E93611F4C9
:100A7A00046002C0E537A1F4EAE0EC8B01FF08C08C
:100A8A00E0E0FAEC6AE97BE30E94260A1AE022C057
:100A9A00E0E1F7E260E070E00E94260A15E01AC081
:100AAA00E83511F4086003C0E83709F0EAC0E0E16C
:100ABA00EC8B01FF08C0E0E0F0E060E070E10E942A
:100ACA00260A18E007C0E0E0F0E160E070E00E946A
:100ADA00260A14E0403011F00F7701C041E001FF0F
:100AEA0008C00E94120A0E94060A14960E949D0CCF
:100AFA000FC002FF07C00E94120A0E94210A0E9428
:100B0A00400C06C00E94120A0E94210A6627772713
:100B1A00EA87FB876C877D8702FF12C0AD85AA230F
:100B2A0042F40E94140A0E94320C0E940D0AEDE25D
:100B3A00ED8BED89E03019F01F5F4F5F01C00B7F2D
:100B4A00342F00FD14C0151710F4351708F00FC024
:100B5A0007FF08C002FF04C00B7F2D89115001C096
:100B6A0020E301C020E20E94EB095150ECCF141798
:100B7A0090F4006102FF06C00E942B0A09F051504E
:100B8A0011504150E0E3EA930E94000A503009F004
:100B9A0051504150ECCF312FEC89E030B9F430306C
:100BAA00A1F003FF06C0EE85FF852591EE87FF873A
:100BBA0005C0AE85BF852D91AE87BF870E94EB0920
:100BCA00503009F051503150EACF51C00E943D0ACD
:100BDA000E94580C2E2F2A3030F003FF02C0295CE5
:100BEA0001C0295A01C0205D04FD21C0213360F4EF
:100BFA00A889B9898A899B89A130E0E0BE07E0E02B
:100C0A008E07E0E09E0709F40BC0431740F4531720
:100C1A0010F000FF01C010C020E207FF08C020E367
:100C2A00006102FF04C00E942B0A09F051500E9481
:100C3A00EB09503009F0515031500E943D0A0E9490
:100C4A00890C0E940D0AEC89A889B9898A899B892D
:100C5A00FF27662777270E94580C0E94260AE889F0
:100C6A00F9896A897B890E94C90C09F0AFCF00FF14
:100C7A0008C0503031F05150E0E2EA930E94000A75
:100C8A00F8CF10E00CCEAE81BF810E94990C0E9471
:100C9A00DE0CEF966F960895FF92F82E26970E9423
:100CAA00D90C0E94460A309719F4EFEFFFEF23C0E0
:100CBA00DE0116960E94290C8D010E94460AEE83D7
:100CCA00FF83E0E0E887E987DE011A960E94290C93
:100CDA000E94990CFA93EA931A930A93E8E2F3E0D2
:100CEA00FA93EA93DE011A96BDDD9F01AE81BF81B8
:100CFA00E0E0EC93F9010E94E00C2A96FF90089537
:100D0A00BA93AA9324970E948509E0E0EA83EFE365
:100D1A00EB831A930A93EB85FC85EF3FAFEFFA0753
:100D2A0039F40E944D0AA8EBB0E00E94B308ADC0A6
:100D3A00EF3FAFE7FA0739F40E944D0AA9EBB0E09A
:100D4A000E94B308A2C0AC85AA2362F4E985FA8599
:100D5A006B857C850E94800A0E94520A0E94570A6B
:100D6A00EDE2EC93A885A73010F0E6E0E887188555
:100D7A00E12F1150E03039F00E945E0A0E94CD093D
:100D8A000E94630AF5CF0E94680A0E94260B0E94FD
:100D9A00520A10E0E0E0F0E060E87FE30E94630AB4
:100DAA000E94680A0E94090C88F00E945E0A0E944A
:100DBA00BA090E94630A1F5F173238F00E944D0A6F
:100DCA00ADEBB0E00E94B30860C0EACF103029F45E
:100DDA000E94570AE0E3EC932BC0E12F1150E03058
:100DEA0039F10E945E0A0E94CD090E94C609DF01FC
:100DFA00CB010E940A090E94630A0E94680A0E94A3
:100E0A00C40B0E94B30A0E2F0E94570A0E94DB09E4
:100E1A00F0E00E945E0A0E94400C0E94EC0A0E94C6
:100E2A00760B0E94710A0E94E0090E94520AD5CFED
:100E3A00E885E03031F10E94570AEEE2EC93E8854A
:100E4A00E150E887EF5FE9F00E94710A0E94BA094F
:100E5A000E94520AE985FA856B857C850E94B30A4D
:100E6A000E2F0E94570A0E94DB09F0E00E94710AC5
:100E7A000E94400C0E94EC0A0E94E0090E94520A59
:100E8A00DECFAE81BF81E0E0EC93198108812D9617
:100E9A0008950A921A92FA926A937A938A939A9383
:100EAA00AA93BA93EA93FA93EFB7EA930E94D70CFC
:100EBA00109191020091900230919A02209192022F
:100ECA00E12FA0919B02B0919C02F0E0EA0FFB1F78
:100EDA00AF01E1B1E87FE83011F420E002C0E0316F
:100EEA0019F4E091970210C0E83111F0E83221F5C7
:100EFA00031780F4E02F0F5FA0919802B091990236
:100F0A00F0E0AE0FBF1FEC91E3B9E6B7EF70E0680F
:100F1A00E6BF11C0E0919D021E1760F4E0919702AE
:100F2A00E160E0939702E89421F8E6B7EF70E06A8F
:100F3A00E6BFFBC033C0F9C0E03529F4E3B1DA01FA
:100F4A00EC931F5F02C0E03471F4E0919D02E1501E
:100F5A001E1720F0E6B7EF70E06803C0E6B7EF703F
:100F6A00E06CE6BFE2C0E83529F4E3B1DA01EC93BC
:100F7A001F5F02C0E03209F402C0E03309F402C084
:100F8A00E83469F4203051F421FE03C0031728F035
:100F9A0005C0E0919D021E1708F424E0C0C0E833A2
:100FAA0029F422E0E6B7EF70E068BCC0E83611F039
:100FBA00E83711F422E005C0E03611F0E03791F489
:100FCA0020E010E0E89421F8E0919E02E03029F454
:100FDA0021E0E6B7EF70E06803C0E6B7EF70E06CB7
:100FEA00E6BFA3C0E03811F0E03929F521FE02C0BE
:100FFA0021E095C0E3B1DA01EC931F5FE0919E0214
:10100A001E17B0F4E0919F02F091A002309711F4FC
:10101A0026E085C0A0E0E0919F02F091A002099528
:10102A00E03029F0E6B7EF70E06CE6BF7EC002C0A0
:10103A00689421F802C0E83809F402C0E83929F4B2
:10104A00E6B7EF70E068E6BF70C0E03AA9F4E6B729
:10105A00EF70E06CE6BF689422F8E0919F02F0918D
:10106A00A002309739F0A1E0E0919F02F091A0022E
:10107A00099501C026E059C0E03B11F422E002C004
:10108A00E83AB9F4E091A102F091A202309759F03E
:10109A00A0E0E091A102F091A20209953E2FE03072
:1010AA0011F020E002C026E03AC000E0E89421F8FE
:1010BA0002C0E83BE1F421FE02C021E030C0E02F8B
:1010CA000F5FA0919802B0919902F0E0AE0FBF1F96
:1010DA00EC91E3B9031720F4E6B7EF70E06C05C0B2
:1010EA00689421F8E6B7EF70E068E6BF1EC0E03CFE
:1010FA0011F0E83C89F4E6B7EF70E06CE6BFE091E6
:10110A00A102F091A202309731F0A1E0E091A10290
:10111A00F091A202099507C0E03039F423E0E6B75E
:10112A00EF70E06DE6BF689422F810939102009385
:10113A0090022093920230939A020E94DE0C269625
:10114A00E991EFBFF991E991B991A99199918991A1
:10115A0079916991F990199009901895BA93AA937F
:10116A00E991F991A991B991CD0105900D920020CB
:10117A00E1F7FC010895BA93AA93A991B991EE27D0
:10118A00FF276D91662311F03196FBCF0895BA932C
:10119A00AA93AA27BB27E991F9910590002011F09B
:1011AA001196FBCFFD0108950E94B70C7B816A81DD
:1011BA00F981E88177FB770F67FD7160972F9E575A
:1011CA0081F078F0983190F4AA27BB2788270894F1
:1011DA008795B795A7959A95D1F7EA23FB236823B4
:1011EA0005C0E8947727EE27FF2766276F7776955D
:1011FA0008F4606877F9A991B99189919991EA17E8
:10120A00FB076807790797FB08950E94B70C0E94AD
:10121A00A80C0E94D9080E94AD0C19F40E94A30CD4
:10122A0009C0E6F70E94A30CA0E0B0E080E89FE3C3
:10123A000E941F0B24960895A0916002B09161024A
:10124A0080916202909163020895E0936002F093A4
:10125A00610260936202709363020895AAE0B0E0AB
:10126A000C94760AA0916402B0916502809166029C
:10127A00909167020895E0936402F0936502609387
:10128A006602709367020895A0916802B09169029C
:10129A0080916A0290916B020895E5E0F0E060E0C7
:1012AA0070E00E94580C0895ACE0A09FF001A19F45
:1012BA00F00D0895DF010E94990CBEDF0E94400CD8
:1012CA000895DF010E94990CCDDF0E94400C089519
:1012DA00DF010E94990CD8DF0E94400C0895FE019C
:1012EA00FA93EA930895AA9324971A930A93EE819C
:1012FA00E07F1E2FEE81E295E07F0E2FE12F089509
:10130A00E0E0E883E9830895ED91FD913196FE933B
:10131A00EE930895AC81BD818E819F81E0E0F0E07B
:10132A0060E271E40E94760BEC83FD836E837F8317
:10133A000895EC81FD816E817F81AC85BD858E85A6
:10134A009F850E94090C0895AC85BD858E859F8571
:10135A000895EDECFCEC6CEC7DE30E94760BEC87D7
:10136A00FD876E877F873F5F0895E0E0F0E060E2E7
:10137A0071E40E94760B0895EC87FD876E877F875C
:10138A000895A0E0B0E080E09FE30E94260B089554
:10139A00EDECFCEC6CEC7DE30E94760B0895A885DD
:1013AA00B9851196A887B98711970895E02FE05D4E
:1013BA00EC93E02F08950E94BC0C0E941F0B089525
:1013CA00E885F9853196E887F98708952A93AF81E8
:1013DA00B885E985FA8509950895FE01E65AFF4F11
:1013EA000190F081E02D08953497DE01A65ABF4F8F
:1013FA00ED93FC930895AF81B885E985FA8509953F
:10140A000895DE01A65ABF4F0D90BC91A02D0895F4
:10141A00EA87FB876C877D870895DFDFE5CFEA855A
:10142A00FB856C857D850895EE87FF87AE85BF8530
:10143A000E94C0081E2F0895E4DF14960E94990C9A
:10144A000895E88BF98B6A8B7B8B08950B7FED8966
:10145A00EA93DE01A95ABF4F0D90BC91A02DFE015F
:10146A00E75AFF4F0190F081E02D09955030089519
:10147A00E889F9896A897B89AA85BB858C859D85D6
:10148A000895DE011C960E94290C0E94990C089569
:10149A00EE81FF81FA93EA930895E987FA876B87C9
:1014AA007C870895AE81BF811196AE83BF83119761
:1014BA000895AA81BB818C819D810895EA83FB836B
:1014CA006C837D830895EA81FB816C817D81A98586
:1014DA00BA858B859C850895A985BA858B859C8557
:1014EA000895109639F088EB9BE00197F1F7A895DB
:1014FA001197C9F7089530976040704009F0705805
:10150A000895552342F4503811F4E0FF04C031968F
:10151A00691F791F6BF050E8572711F45F93CFC00A
:10152A005F3F31F0660F000C57956795752F089548
:10153A005F9300200AF0CFC0C8C050E8192E1522C8
:10154A00880F991F9527550F879550E8072E052272
:10155A00660F771F7527550F67950895689401C020
:10156A00E8945F93F2DF703818F07F3F08F4A7C061
:10157A0056E1571BAAF4519558300EF4593030F001
:10158A00EFEFFFEF6FEF7FE777F91AC07727552361
:10159A00B9F0EE0FFF1F661F771F5A95D1F710C0DB
:1015AA007727583028F0EF2FF62F672F5850F9CFAA
:1015BA00552331F076956795F795E7955A95D1F7C2
:1015CA0000200AF44AD15F910895689401C0E89412
:1015DA00309760407040B1F0002426F0772312F46F
:1015EA0000943BD1172E7EE1112032F07A95EE0F4E
:1015FA00FF1F661F111CF9CFEF2FF62F612D5F9386
:10160A008ADF5F9108954F93AF01FD01DA01AB01C3
:10161A00BC01CA01402D012C142E4F910895EA0FE6
:10162A00FB1F681F0895E095F0956095EF5FFF4FE7
:10163A006F4F08955F9381DF903871F150E8152656
:10164A0004C05F937ADF903839F1703821F1572F4F
:10165A00591B2BF112F4D7DFFACF583118F0AA2709
:10166A00BB278827583028F0AB2FB82F8827585027
:10167A00F9CF552329F08695B795A7955A95D9F7A5
:10168A00502D512572F0CBDF38F46795F795E79521
:10169A00739513F420C0B7DF3EDF5F910895D8F742
:1016AA00FBCFEA1BFB0B680B51F010F40094BBDF75
:1016BA00662392F3EE0FFF1F661F7A95CBF7EE278C
:1016CA00FF27662777275F910895EFEFFFEF6FE710
:1016DA007FEF5F910895EFEFFFEF6FE77FE75F918D
:1016EA0008955F932ADF703851F3903841F301244B
:1016FA000894791F23F41CF300203AF3ECCF0F92DD
:10170A001F932F933F934F93112722279927689F5F
:10171A00A0018F9F302D410D591F6B9F300D411D28
:10172A00591F8E9F27D0BF9F25D06A9F23D0BE9F67
:10173A001DD0AF9F1BD0AE9F110D291F391F491F06
:10174A00591FE32FF42F652F522F4F913F912F915D
:10175A001F910F9066232AF0550FEE1FFF1F661F79
:10176A0002C073954BF2CDDE5F910895100D211DD5
:10177A00391F02C0200D311D491F591F08955F935B
:10178A00DCDE703821F411200AF49FCFA4CF903800
:10179A0009F495CF01240894970B1BF4D4F3002085
:1017AA00F3CF792F1F932F933F934F931124112730
:1017BA00222733274427552790E2AE17BF0786070B
:1017CA00410730F0AE1BBF0B860B410B089401C0DA
:1017DA008894551F221F331F111CAA1FBB1F881F65
:1017EA00441F9A9551F7F901612D4F913F912F911D
:1017FA001F91662332F0550FEE1FFF1F661F7A9561
:10180A0043F27FDE5F91089599239AF0772342F09D
:10181A00971748F029F4AE17BF07860720F031F072
:10182A00989488940895989408940895189488949C
:10183A0008957723C2F7971798F3A9F7EA17FB07D2
:10184A00680788F399F3ECCF0024AF0DB01D089513
:10185A00EA0FFB1F681F791F0895F0956095709530
:10186A00E195FF4F6F4F7F4F0895FE2FFF0FFF0B3C
:10187A006F2F7F2F08956F2F660F660B762F0895AF
:10188A00002498E0AA0F001C0E1A10F40E0E01C0D4
:10189A00A1609A95B9F7EA2FA02D089539D0F0DF03
:1018AA000EF4E19508953F934F935F93002411241A
:1018BA004427552730E2AA0FBB1F881F991F001C17
:1018CA00111C441F551F0E1A1F0A460B570B28F4EA
:1018DA000E0E1F1E461F571F01C0A1603A9559F7E9
:1018EA00FD01BC01D001CA015F914F913F9108955A
:1018FA00E894A7FF02C0A1956894E7FDE195C0DFCF
:10190A00EA2F0EF4E1950895CEDFFD01BC0108959A
:10191A00E894E7FF02C0E1956894A7FF04C0A19587
:10192A0000F8039400FA0895ED91FC911197089537
:10193A00ED91FD916D917C9113970895E881F9815C
:10194A006A817B810895A881B9818A819B810895E2
:10195A00E883F9836A837B8308957A936A93FA9377
:10196A00EA9308959A938A93BA93AA930895182E9C
:10197A00862F612D192E972F712D1B2EBF2FF12D1A
:10198A001A2EAE2FE12D08953097604070400895C9
:10199A00EA17FB07680779070895AE17BF07860796
:1019AA00970708955A934A933A932A931A930A9354
:1019BA0008955D814C813B812A81198108810895AE
:00000001FF
